:10000000BFCB34C0BFCB32C00CC430C02FC02EC059
:100010002DC02CC02BC02AC029C028C027C0003743
:10002000003800360101010101010102040810201D
:1000300001030000000011241FBECFE5D2E0DEBFA7
:10004000CDBF10E0A0E6B0E0EEE2FDE002C005901A
:100050000D92A636B107D9F710E0A6E6B0E001C0D0
:100060001D92A23BB107E1F796D55FC6C9CFA0E0CC
:10007000B0E0ECE3F0E02AC6EC01A880B980CA80C9
:10008000DB80A114B104C104D10441F484E2A82EA0
:1000900089EDB82E8BE5C82E87E0D82EC601B501B4
:1000A0002DE133EF41E050E0CCD527EA31E440E0E8
:1000B00050E087D57B018C01C601B5012DE133EFFE
:1000C00041E050E0BED5CA01B9012CEE34EF4FEF4C
:1000D0005FEF77D56E0D7F1D801F911F97FF04C0C6
:1000E0006150704080409048688379838A839B8305
:1000F0009B01AC015F77B901CA01CDB7DEB7EAE079
:1001000001C6B5DF089580E690E0B1DF0895609301
:100110006000709361008093620090936300089583
:10012000823079F0833018F48130F1F405C08330E7
:1001300071F08430C9F412C081E061E06BD481E0D9
:100140000AC081E061E066D481E060E005C080E043
:1001500061E060D480E061E081D4089580E061E0F6
:1001600059D480E060E07AD4089581E060E076D4EC
:1001700080E060E073D481E060E04CD480E060E037
:1001800049D4089580E060E045D481E060E042D445
:1001900083E060E03FD482E061E03CD484E061E051
:1001A00039D40895CF93DF9310C0DFDF8C2FB8DFF1
:1001B00064E670E080E090E08CD32196C530D105F4
:1001C000A4F3FED2EC01009719F4C1E0D0E0F6CF21
:1001D0006AE070E0E4D480936400C0936500C5DFFA
:1001E0008C2F9EDFEDD2892BE9F7BFDFDF91CF9116
:1001F0000895EF92FF920F931F93CF93DF93EE2416
:10020000FF2449C0F80180818BDFF80181918F01C3
:10021000E7D06091650088EC90E070E0FFD488271B
:1002200077FD8095982F55D3A0DF6091650088EC0D
:1002300090E070E0F3D4882777FD8095982F49D31C
:100240002196EC16FD06F4F600E010E0B9D2892BF9
:10025000E9F7B6D2EC010097E1F362DF8C2FC0D052
:10026000AFD2892BE9F781DFF801EA59FF4F80818E
:1002700090E0C817D90711F058D119C00F5F1F4F70
:10028000E016F1061CF764EF71E080E090E021D306
:100290000894E11CF11C8091640090E0E816F906D6
:1002A0002CF406E610E0C0E0D0E0ACCFC5D1DF9181
:1002B000CF911F910F91FF90EF900895CF93DF930F
:1002C000C6E6D0E00AC061E070E080E090E025E0A2
:1002D00030E040E050E03BD4699380E0C23AD80778
:1002E00091F7DF91CF91089582E060E0B7D384E089
:1002F00060E0B4D382E060E08DD384E060E08AD334
:1003000061E070E080E090E0E4D281E0DCD33CD4B6
:10031000D5DF82E061E07ED384E061E07BD33ED133
:10032000089540DF68EE73E080E090E0D2D2DCDF39
:1003300068EE73E080E090E0CCD25BDF08956F92CE
:100340007F928F929F92AF92BF92CF92DF92EF9265
:10035000FF920F931F937C018B01ADD25B016C0167
:10036000E114F10471F4780100E010E0A4D26A19FC
:100370007B098C099D096E157F0580079107B0F3F5
:100380001DC038018824992482E061E067D384E0AD
:1003900060E064D3C701F8D282E060E05FD384E01C
:1003A00061E05CD3C701F0D286D26A197B098C095F
:1003B0009D09661577058805990530F361E070E0C1
:1003C00080E090E086D21F910F91FF90EF90DF9038
:1003D000CF90BF90AF909F908F907F906F90089537
:1003E000823069F0833018F48130B9F405C083306D
:1003F00049F0843091F40CC08DED91E005C089EA9C
:1004000091E002C08BE791E066E970E098DF089523
:1004100085E691E066E970E092DF08956F927F9241
:100420008F929F92AF92BF92CF92DF92EF92FF9204
:100430000F931F938C017B0183708F5F71DE3BD222
:100440005B016C010115110569F400E010E033D285
:100450006A197B098C099D096E157F058007910734
:10046000B0F31DC037018824992482E061E0F6D200
:1004700084E060E0F3D2C80187D282E060E0EED28F
:1004800084E061E0EBD2C8017FD215D26A197B0902
:100490008C099D09661577058805990530F365DE99
:1004A00061E070E080E090E014D21F910F91FF9026
:1004B000EF90DF90CF90BF90AF909F908F907F9004
:1004C0006F900895CF92DF92EF92FF920F931F9358
:1004D000FC017B016A01C90163E070E08BD3162F38
:1004E000072FCF019BDFC701612F702F97DFC60158
:1004F000612F702F93DF1F910F91FF90EF90DF908E
:10050000CF900895EF92FF920F931F937B01F69483
:10051000E794B70183DF00E010E0C801B701D9D14B
:100520001F910F91FF90EF90089580E090E060E0C0
:1005300070E040E050E028E532E0C4DF86EF92E072
:1005400065E873E046EF52E028E532E0BBDF83E286
:1005500093E06BEB73E043E253E028E532E0B2DF77
:1005600083E593E064EF73E043E553E028E532E090
:10057000A9DF85E893E06CE271E0C4DF86EA96E0EB
:100580006CE271E0BFDF87E496E06CE271E0BADF15
:100590008CEE95E068E572E041DF08958BE791E02D
:1005A00066E970E0AFDF8BE791E066E970E0AADF13
:1005B00080E090E066E970E031DF8BE791E066E98A
:1005C00070E0A0DF80E090E066E970E027DF8DED6D
:1005D00091E066E970E096DF8BE791E066E970E014
:1005E00091DF80E090E066E970E018DF8EE391E053
:1005F0006CE271E087DF80E090E06CE271E00EDF9A
:100600008DE792E06CE271E07DDF80E090E06CE2EB
:1006100071E004DF0895EF92FF920F931F937C0126
:100620008B01FCDE16950795C701B801F7DE1F9117
:100630000F91FF90EF90089580E794E06CE271E0F5
:1006400061DF80E090E06CE271E0E8DE8BEB93E04C
:100650006CE271E0E0DF80E794E06CE271E052DF91
:1006600080E794E066E970E04DDF83E593E06CE2BB
:1006700071E0D4DE80E794E06CE271E0CFDE8DE7DC
:1006800092E06CE271E03EDF80E794E06CE271E0C2
:10069000C5DE80E090E06CE271E0C0DE86EF92E0C3
:1006A0006CE271E0B8DF80E794E06CE271E02ADF91
:1006B00080E794E066E970E025DF8BEC92E06CE285
:1006C00071E020DF86EF92E06CE271E01BDF8BEBE4
:1006D00093E06CE271E016DF80E794E06CE271E099
:1006E00011DF86EF92E06CE271E00CDF88E392E0CC
:1006F0006CE271E007DF80E794E066E970E002DF1A
:100700008BEF94E06CE271E0FDDE8BEF94E066E944
:1007100070E0F8DE8CEE95E06CE271E0F3DE84EFE1
:1007200093E06CE271E0EEDE80E794E068E572E071
:1007300072DF08950F931F93CF93DF9300E010E0D3
:10074000C0E0D0E083E0BFD1080F191F65E070E082
:1007500080E090E0BED02196C530D10599F7C80160
:1007600065E070E047D29B0183E0693E780700F5C1
:10077000CB0188559140CB9718F421E030E01AC0A6
:10078000CB01855E9140CB9718F422E030E012C097
:10079000CB018C539240CB9718F423E030E00AC091
:1007A000295732402B33310518F424E030E002C0E1
:1007B00020E030E0C901DF91CF911F910F910895A2
:1007C000CF93DF93B7DFEC018FEFCF3FD807D1F3A3
:1007D0008091A60090E0C817D90749F06CD06093CB
:1007E000A2007093A3008093A4009093A500C093EF
:1007F000A60061D02091A2003091A3004091A400F6
:100800005091A500621B730B840B950B6230710530
:1008100081059105B8F2C093A700CE01DF91CF9179
:10082000089578941F920F920FB60F9211242F9370
:100830003F938F939F93AF93BF938091AC00909120
:10084000AD00A091AE00B091AF003091B000232F69
:100850002A5F2D3728F02D570396A11DB11D03C027
:100860000296A11DB11D2093B0008093AC0090931F
:10087000AD00A093AE00B093AF008091A80090911E
:10088000A900A091AA00B091AB000196A11DB11DD5
:100890008093A8009093A900A093AA00B093AB0006
:1008A000BF91AF919F918F913F912F910F900FBE6C
:1008B0000F901F9018958FB7F8942091AC0030914D
:1008C000AD004091AE005091AF008FBFB901CA0199
:1008D00008959B01AC017FB7F8948091A800909196
:1008E000A900A091AA00B091AB006FB508B602FEB6
:1008F00005C06F3F19F00196A11DB11D7FBFBA2F32
:10090000A92F982F8827860F911DA11DB11D63E087
:10091000880F991FAA1FBB1F6A95D1F7BC012EC073
:10092000FFB7F8948091A8009091A900A091AA0027
:10093000B091AB00EFB508B602FE05C0EF3F19F06D
:100940000196A11DB11DFFBFBA2FA92F982F88278F
:100950008E0F911DA11DB11DE3E0880F991FAA1FE5
:10096000BB1FEA95D1F7861B970B885E9340C0F2B8
:10097000215030404040504068517C4F2115310596
:100980004105510569F60895039728F021F0880F75
:10099000991F0197F1F7089591B7E1E0F0E081E246
:1009A000809357008491981749F001B607FE03C061
:1009B00081B7875002C081B7855081BFF89480E825
:1009C00086BD81E086BD789480B7806880BF80B79F
:1009D000806480BF8CB580648CBD8FEF8DBD80B787
:1009E000807F876080BF89B7846089BF83B7887F35
:1009F00083BF8AB58C7F81608ABD83B7877F83BFC1
:100A000083B7887F836083BF86B1887F866086B91D
:100A1000379A0895482F50E0CA01865D9F4FFC0128
:100A200024914C5D5F4FFA0184918823B1F0E82F47
:100A3000F0E0E25EFF4FE491F0E0662341F49FB7FF
:100A4000F89480812095822380839FBF08959FB76B
:100A5000F8948081822B80839FBF0895282F482F90
:100A600050E0CA01865D9F4FFC0134914C5D5F4FA1
:100A7000FA019491992331F1222319F48AB58F73E5
:100A800004C0213021F48AB58F7C8ABD05C0243092
:100A900019F48CB58F7C8CBDE92FF0E0E05EFF4F40
:100AA000E491F0E0662341F49FB7F894808130959B
:100AB000832380839FBF08959FB7F8948081832B01
:100AC00080839FBF0895482F863008F0465080915C
:100AD000B10027B1382F3295330F330F307C2F728E
:100AE000322B90E0847090709695879596958795B7
:100AF0008295807F382B37B987B1807F842B87B967
:100B0000369A3699FECF24B135B1C9010895EF92D6
:100B1000FF920F931F937B018C0161157105810575
:100B2000910529F420E030E040E050E009C0EBDA24
:100B3000A801970186D0AC01CB01DA019C01AD017F
:100B4000B901CA011F910F91FF90EF900895EF92A4
:100B5000FF920F931F937B018C0162177307840729
:100B600095075CF4261B370B480B590BCA01B901DA
:100B7000CEDFE60EF71E081F191FB701C8011F912F
:100B80000F91FF90EF900895009721F0BC0180E055
:100B900090E0BDDA089500DFF5DAC3DBFECF55271C
:100BA000002480FF02C0060E571F660F771F6115D5
:100BB000710521F096958795009799F7952F802DCF
:100BC0000895FF27EE27BB27AA2760FF04C0A20FC6
:100BD000B31FE41FF51F220F331F441F551F9695A7
:100BE00087957795679589F70097760771F7CF0115
:100BF000BD010895AA1BBB1B51E107C0AA1FBB1F63
:100C0000A617B70710F0A61BB70B881F991F5A9598
:100C1000A9F780959095BC01CD01089597FB092E09
:100C200007260AD077FD04D0E5DF06D000201AF4AD
:100C3000709561957F4F0895F6F7909581959F4F38
:100C4000089597FB092E05260ED057FD04D014D029
:100C50000AD0001C38F450954095309521953F4FAF
:100C60004F4F5F4F0895F6F7909580957095619579
:100C70007F4F8F4F9F4F0895A1E21A2EAA1BBB1BD7
:100C8000FD010DC0AA1FBB1FEE1FFF1FA217B30758
:100C9000E407F50720F0A21BB30BE40BF50B661F6E
:100CA000771F881F991F1A9469F760957095809532
:100CB00090959B01AC01BD01CF0108952F923F9209
:100CC0004F925F926F927F928F929F92AF92BF925C
:100CD000CF92DF92EF92FF920F931F93CF93DF9308
:100CE000CDB7DEB7CA1BDB0B0FB6F894DEBF0FBE65
:100CF000CDBF09942A88398848885F846E847D84B2
:100D00008C849B84AA84B984C884DF80EE80FD80B3
:100D10000C811B81AA81B981CE0FD11D0FB6F89429
:100D2000DEBF0FBECDBFED010895F894FFCF0100E7
:100D300000003C01FFFFFFFFFFFFFFFFFFFFFFFF82
:100D4000FFFFFFFFFFFFFFFFFFFFFFFFFFFFFFFFB3
:100D5000FFFFFFFFFFFFFFFFFFFFFFFFFFFFFFFFA3
:100D6000FFFFFFFFFFFFFFFFFFFFFFFFFFFFFFFF93
:100D7000FFFFFFFFFFFFFFFFFFFFFFFFFFFFFFFF83
:10177000FFFFFFFFFFFFFFFFFFFF3D005CC476C4DC
:1017800022C040C06CC03EC03DC03CC03BC03AC05F
:1017900039C038C037C036C035C034C033C0040388
:1017A000090412011001FF000008D01653070601BA
:1017B000000000010902120001010080320904004A
:1017C00000000000000011241FBECFE5D2E0DEBF04
:1017D000CDBF00EB0F9307E00F9310E0A0E6B0E061
:1017E000ECEDFFE102C005900D92A636B107D9F7E6
:1017F00010E0A6E6B0E001C01D92AC39B107E1F7F8
:10180000E7D1EAC3BDCFA82FB92F80E090E041E037
:1018100050EA609530E009C02D9182279795879511
:1018200010F084279527305EC8F36F5FA8F3089502
:10183000EADF8D939D930895A6E088279927AA95BE
:1018400069F00197E1F3B399FCCFB39BFECF81E040
:101850009927A6B3019611F0A871D9F70895CF93EF
:10186000CFB7CF93C0915F02C03B21F4C0915E021D
:10187000C73021F0CF91CFBFCF9181CFCC27C39577
:10188000B39BE9F7B39B0BC0B39B09C0B39B07C0E5
:10189000B39B05C0B39B03C0B39B01C0D3C00F92E1
:1018A000DF93C0917F00DD27CA57DF4F012EB39B26
:1018B00003C0DF910F90E6CF2F930F931F934F93A9
:1018C0002FEF4F6F06B303FB20F95F933F9350E078
:1018D0003BE065C016B30126502953FDC89556B3A9
:1018E000012703FB25F92F7306B3B1F0502710270A
:1018F00013FB26F906B22230F0F000C016B3012720
:1019000003FB27F90126502906B22430E8F54F776A
:10191000206816B30000F6CF50274F7D206206B234
:10192000102F000000C006B300265029102713FB1B
:1019300026F906B2E2CF4F7B06B3206400C0DACFAF
:1019400001265029187106B269F14E7F2160012FDE
:1019500016B328C0002650294D7F06B22260102FF2
:1019600029C0012650294B7F06B22460012F2DC0CB
:1019700016B301265029477F2860000006B22EC00A
:101980004F7E06B3206130C0422706B3499300263C
:101990005029102706B24FEF13FB20F9297F16B309
:1019A00079F2187159F10126502906B2012703FB7B
:1019B00021F9237F06B371F2002650293150D0F06F
:1019C00006B2102713FB22F9277E16B351F2012627
:1019D0005029012703FB06B223F92F7C49F20000AE
:1019E00006B3102713FB24F90026502906B22F79DD
:1019F00039F270CF10E21ABF002717C03B50319563
:101A0000C31BD04010E21ABF0881033CF9F00B342D
:101A1000E9F020917D001981110F1213EDCF0936E5
:101A200051F10D3211F0013E39F7009384003F91DE
:101A30005F914F911F910F912F91DF910F90CAB736
:101A4000C5FD1DCFCF91CFBFCF91189520918400B8
:101A5000222369F310918200112321F5343022F101
:101A60003093820020937E0010917F003BE0311B79
:101A700030937F0019C00091820001309CF40AE588
:101A80003091600034FD11C000936000C2E7D0E0E7
:101A900010C0052710E000C021C0052710E0C89540
:101AA00008BB14C03AE501C032ED032EC0E0D0E01F
:101AB00032E017B31861C39A08B317BB58E120E8A6
:101AC0004FEF20FF052708BB279517951C3F28F7E8
:101AD00000004552B0F720FF0527279508BB179552
:101AE0001C3FB8F629913A9561F7077E1091830063
:101AF000110F08BBC250D04011F010937D0010E2CE
:101B00001ABF086017B3177E402F477E54E05A95DE
:101B1000F1F708BB17BB48BB8ACF81E0809369000F
:101B2000F894E0917000F0917100329785E0809315
:101B30005700E89507B600FCFDCF789408959C0106
:101B4000E0917000F0917100309789F1E430F10577
:101B5000F1F087E1EC37F80739F420916C0030910F
:101B60006D002E5B3B4F15C087E1EE37F80739F467
:101B700020916E0030916F002D5B3B4F0AC087E1D2
:101B8000EA37F80731F481B7282F30E002C02FEB95
:101B90003BECF89481E0090180935700E89511240B
:101BA00078943296F0937100E0937000089581E18B
:101BB00080935700E895EBCF8FEF9FEFC0DF8091C8
:101BC0007000909171008F739070892BA9F7A5CF49
:101BD0001F93CF93DF9388E10FB6F89481BD11BCBA
:101BE0000FBEE0E0F0E0859194918F5B9B4C39F45F
:101BF000E4E0F0E0859194918F5B9B4C09F0DCDF91
:101C00001092710010927000AC9A8BB780628BBFFB
:101C1000BB9A88E893E1ECE9F1E03197F1F701979D
:101C2000D1F7BB98789410918200135017FDD4C05F
:101C300080917F00CCE0D0E0C81BD109CA57DF4FAC
:101C400080917E008D3209F091C0183009F0C2C039
:101C500083EC809372008AE58093600010926B00A1
:101C60002881822F80769981882329F1109267003C
:101C700010926600992341F482E690E090938100EF
:101C80008093800024E068C0913051F48C819D8164
:101C9000909371008093700027FD59C09FEF58C04A
:101CA00080916800923011F4816001C0846080935B
:101CB000680020E051C08A8110927B00992331F4A2
:101CC00010927C008BE790E022E03CC0953019F444
:101CD0008093830034C0963011F58B81813019F4E4
:101CE00082EA97E104C0823041F484EB97E190935B
:101CF00081008093800022E10EC0833059F48A81F4
:101D0000882341F48EE997E19093810080938000CD
:101D100024E001C020E080E480936B001DC0983077
:101D200019F485E890E009C0993019F48093850092
:101D300006C09A3021F48BE790E021E003C08BE7E6
:101D400090E020E0909381008093800005C09E8108
:101D500080E880936B0007C08F81882319F49E81EF
:101D6000921708F0922F9093610034C080916B001D
:101D700087FF30C08091700090917100009739F416
:101D80008881998190936D0080936C000DC08430A0
:101D9000910539F48881998190936F0080936E004A
:101DA00003C08058974138F488819981C8DE125069
:101DB00011F02296DFCF80917000909171008F73A7
:101DC0009070892B39F4809168008260809368005C
:101DD00010926100109282008091600084FF3CC0EC
:101DE000809161008F3FC1F1182F893008F018E011
:101DF000811B809361008091720098E8892780930D
:101E000072001123E1F0E0918000F0918100809157
:101E10006B0086FF09C0912FA3E7B0E084918D93FA
:101E200031969150D9F707C0912FA3E7B0E0819187
:101E30008D939150E1F7F0938100E093800083E768
:101E400090E0612FF5DC612F6C5F6C3019F08FEF43
:101E5000809361006093600094E186B3887131F4EF
:101E60009150D9F71092830010927D0010E09923D1
:101E700009F411E080916A00811739F0112319F4F7
:101E8000F8946BD0789410936A008CE991E00197F4
:101E9000F1F780916600909167000196909367003A
:101EA0008093660080916800182F80FF14C0F8941A
:101EB000E0E8F7E1E054F04083E080935700E895D4
:101EC00007B600FCFDCF3097A9F710927100109271
:101ED000700072DE789411FF0FC08AE390E20197E0
:101EE000F1F780917000909171008F739070892B41
:101EF00011F062DE01C011DE12FD0AC0109268000E
:101F000080916600909167008055934C08F48BCEC9
:101F100082E291EA0197F1F7F8941BBE15BA10928C
:101F20005F0210925E02EAE7F7E19491892F8150F7
:101F30008E3F20F00DC081B7815081BF81B79817C7
:101F4000D0F303C081B78F5F81BF81B78917D0F30A
:101F500015CCDF91CF911F910895FF920F931F939E
:101F6000CF93DF9380E8F82E00E0C0E0D0E0102FA0
:101F70001F0D11BF61DC29E0843392070CF0102F94
:101F8000F6942196C830D10511F0012FF0CF1150F1
:101F900011BF1F5F012FEC0110C04EDC845399402C
:101FA00097FF03C0909581959F4F8C179D0714F460
:101FB00001B7EC0181B78F5F81BF21B730E0812F7E
:101FC00090E001968217930744F701BFDF91CF910C
:101FD0001F910F91FF900895F894FFCF5AFF177C3F
:101FE0004008FFFFFFFFFFFFFFFFFFFFFFFFFFFFB7
:101FF000FFFFFFFFFFFFFFFFFFFFFFFFFFFFFFFFF1
:00000001FF
