:100000005FCC30C05FCC2EC09BC32CC02BC02AC09D
:1000100029C028C027C026C025C024C023C0010293
:1000200004081020010101010101003800371124EA
:100030001FBECFE5D2E0DEBFCDBF10E0A0E6B0E04E
:10004000EAEDFCE002C005900D92A636B107D9F7A3
:1000500020E0A6E6B0E001C01D92A23BB207E1F7A6
:10006000F6D439C6CDCF60E081E060D460E080E0B6
:100070005DD460E081E03CD460E080E039C482304F
:1000800071F018F4813031F00895833071F08430CC
:1000900089F0089561E081E02BD461E004C061E063
:1000A00081E026D460E081E00AC061E080E020D4F5
:1000B00061E004C061E080E01BD460E080E036C411
:1000C000CF93DF93C6E6D0E080E0C23AD80759F07C
:1000D00025E030E040E050E061E070E080E090E05A
:1000E0009BD46993F1CFDF91CF91089560E082E0D6
:1000F0001DD460E084E01AD460E082E0F9D360E0CF
:1001000084E0F6D361E070E080E090E094D381E099
:100110003CD459D4D5DF61E082E0EAD361E084E0E9
:10012000E7D37CC1CF93DF93C1E0D0E0C530D105E8
:1001300054F499DF8C2FA3DF64E670E080E090E058
:100140007AD32196F3CFBCD2EC01009769F36AE031
:1001500082D480936500C093640085DF8C2F8FDF8D
:10016000AFD2892BE9F7DF91CF917DCFCF92DF928C
:10017000EF92FF920F931F93CF93DF93C0E0D0E0F5
:1001800098ECE92EF12C8091650090E0C817D90712
:100190000CF054C006E610E06801F80181918F016F
:1001A0006EDFF601808176D16091640070E0C70156
:1001B0006FD4882777FD8095982F3DD354DF6091C9
:1001C000640070E0C70164D4882777FD8095982F7C
:1001D00032D3C80186569040C817D907ECF686E698
:1001E000C82E80E0D82E6CD2892BE9F769D28C0119
:1001F0000097E1F344DF802F4DD162D2892BE9F7DC
:1002000032DFF60181916F0190E00817190749F07C
:10021000DF91CF911F910F91FF90EF90DF90CF90E2
:10022000D5C1CF0186569040C817D907E4F664EFD0
:1002300071E080E090E0FFD22196A5CFDF91CF91D1
:100240001F910F91FF90EF90DF90CF9042C160E03F
:1002500080E04ED360E081E04BD360E083E048D3A0
:1002600061E082E045D361E084E042C35BDF68EE99
:1002700073E080E090E0DFD239DF68EE73E080E089
:1002800090E0D9D273CF8F929F92AF92BF92CF92CC
:10029000DF92EF92FF92CF93DF93EC016B018370BB
:1002A0008F5FEDDE98D24B015C01E12CF12C2097A1
:1002B000D1F491D2681979098A099B096C157D05D9
:1002C0008E059F05B0F3CFDE61E070E080E090E046
:1002D000DF91CF91FF90EF90DF90CF90BF90AF90E4
:1002E0009F908F90A8C261E082E020D360E084E01C
:1002F0001DD3CE01C4D260E082E018D361E084E077
:1003000015D3CE01BCD267D2681979098A099B0935
:100310006C157D058E059F0530F3D5CF8F929F928A
:10032000AF92BF92CF92DF92EF92FF92CF93DF9383
:10033000EC016B0150D24B015C01E12CF12C2097B8
:10034000C9F449D2681979098A099B096C157D0598
:100350008E059F05B0F361E070E080E090E0DF91F2
:10036000CF91FF90EF90DF90CF90BF90AF909F9094
:100370008F9061C261E082E0D9D260E084E0D6D2A1
:10038000CE017DD260E082E0D1D261E084E0CED2C5
:10039000CE0175D220D2681979098A099B096C159A
:1003A0007D058E059F0530F3D6CF0F931F93CF9316
:1003B000DF93EC018B0167DFB80176956795CE017D
:1003C000DF91CF911F910F915ECFCF93DF93EB0120
:1003D000D695C795BE0157DFBE0180E090E0DF9162
:1003E000CF9129C2EF92FF920F931F93CF93DF9388
:1003F000FC018B017A01C90163E070E035D3EB01A8
:10040000CF0141DFBE01C8013EDFBE01C701DF9160
:10041000CF911F910F91FF90EF9035CF66E970E07B
:100420008BE791E0D2DF66E970E08BE791E0CDDF0A
:1004300066E970E080E090E026DF66E970E08BE737
:1004400091E0C3DF66E970E080E090E01CDF66E9E0
:1004500070E08DED91E0B9DF66E970E08BE791E047
:10046000B4DF66E970E080E090E00DDF6CE271E0FF
:100470008EE391E0AADF6CE271E080E090E003DFC0
:100480006CE271E08DE792E0A0DF6CE271E080E069
:1004900090E0F9CE823071F018F4813031F0089597
:1004A000833069F0843081F0089566E970E08DED65
:1004B00091E00EC066E970E089EA91E009C066E962
:1004C00070E08BE791E004C066E970E085E691E0BA
:1004D00025CF6CE271E080E794E077DF6CE271E0B9
:1004E00080E090E0D0DE6CE271E08BEB93E05DDFCA
:1004F0006CE271E080E794E068DF66E970E080E735
:1005000094E063DF6CE271E083E593E0BCDE6CE2D3
:1005100071E080E794E0B7DE6CE271E08DE792E095
:1005200054DF6CE271E080E794E0ADDE6CE271E0F4
:1005300080E090E0A8DE6CE271E086EF92E035DFCB
:100540006CE271E080E794E040DF66E970E080E70C
:1005500094E03BDF6CE271E08BEC92E036DF6CE222
:1005600071E086EF92E031DF6CE271E08BEB93E0BB
:100570002CDF6CE271E080E794E027DF6CE271E051
:1005800086EF92E022DF6CE271E088E392E01DDF0B
:1005900066E970E080E794E018DF6CE271E08BEFD1
:1005A00094E013DF66E970E08BEF94E00EDF6CE21D
:1005B00071E08CEE95E009DF6CE271E084EF93E08E
:1005C00004DF68E572E080E794E0EFCE28E532E0F2
:1005D00040E050E060E070E080E090E003DF28E57C
:1005E00032E046EF52E065E873E086EF92E0FADE33
:1005F00028E532E043E253E06BEB73E083E293E003
:10060000F1DE28E532E043E553E064EF73E083E593
:1006100093E0E8DE6CE271E085E893E0D6DE6CE220
:1006200071E086EA96E0D1DE6CE271E087E496E064
:10063000CCDE68E572E08CEE95E025CE0F931F933B
:10064000CF93DF9305E010E0C0E0D0E083E09DD1E0
:10065000C80FD91F65E070E080E090E0ECD0015059
:100660001109A1F7CE0165E070E0FED1693E83E09B
:100670007807F8F4CB01885591408B33910580F0D1
:100680008D5891098B33910570F08239910570F086
:10069000695772406B33710560F484E090E00BC0E1
:1006A00081E090E008C082E090E005C083E090E047
:1006B00002C080E090E0DF91CF911F910F910895EB
:1006C0000F931F93CF93DF93B9DFEC018091A300C9
:1006D00090E0C817D90749F07ED06093A4007093CA
:1006E000A5008093A6009093A700C093A30073D0A9
:1006F0000091A4001091A5002091A6003091A700C0
:10070000601B710B820B930B6230710581059105A3
:10071000D8F2C093A200CE01DF91CF911F910F912B
:10072000089583B7887F83BF8AB58C7F81608ABD37
:1007300083B7877F83BF83B7887F836083BF089534
:1007400078941F920F920FB60F9211242F933F931C
:100750008F939F93AF93BF938091A9009091AA002C
:10076000A091AB00B091AC003091A80023E0230F22
:100770002D3730F026E8230F0296A11DB11D03C0CE
:100780000196A11DB11D2093A8008093A90090930C
:10079000AA00A093AB00B093AC008091AD00909103
:1007A000AE00A091AF00B091B0000196A11DB11DA7
:1007B0008093AD009093AE00A093AF00B093B000D3
:1007C000BF91AF919F918F913F912F910F900FBE4D
:1007D0000F901F9018952FB7F8946091A900709111
:1007E000AA008091AB009091AC002FBF08953FB755
:1007F000F8948091AD009091AE00A091AF00B091BF
:10080000B0002FB508B602FE05C02F3F19F00196C3
:10081000A11DB11D3FBF6627782F892F9A2F620F28
:10082000711D811D911D42E0660F771F881F991F62
:100830004A95D1F70895CF92DF92EF92FF92CF932E
:10084000DF936B017C01D3DFEB01C114D104E10420
:10085000F10471F0CCDF6C1B7D0B683E7340A8F394
:1008600081E0C81AD108E108F108C851DC4FEDCF8A
:10087000DF91CF91FF90EF90DF90CF900895029796
:1008800038F031F0880F991F880F991F0197F1F701
:100890000895E1E0F0E081E28093570084910895AB
:1008A000CF93C1B7F6DFC81749F001B607FE03C002
:1008B00081B7875002C081B7855081BF789480B7D7
:1008C000806880BF80B7806480BF8CB580648CBD39
:1008D0008FEF8DBD80B7807F876080BF89B78460D0
:1008E00089BF1FDF86B1876086B9379ACF91089597
:1008F00090E0FC01E25EFF4F2491FC01EC5DFF4FB4
:10090000E491EE2391F0F0E0E45DFF4FA491B0E0BC
:100910009FB7611105C0F8948C912095822303C084
:10092000F8948C91822B8C939FBF0895A82FB0E0F0
:10093000FD01E25EFF4F9491FD01EC5DFF4FE491FC
:10094000EE2311F1811103C08AB58F7304C0813089
:1009500021F48AB58F7C8ABD05C0843019F48CB52A
:100960008F7C8CBDF0E0E65DFF4FA491B0E02FB727
:10097000611105C0F8948C919095892303C0F89477
:100980008C91892B8C932FBF0895863008F0865068
:100990003091B10027B1932F9295990F990F907CC8
:1009A0002F72922B32FB332730F93295307F932B05
:1009B00097B997B1907F982B97B9369A3699FECF11
:1009C00084B195B10895009721F0BC0180E090E0DA
:1009D00079C10895CF93DF9300D000D0CDB7DEB7B3
:1009E0009B01AC01611571058105910559F0698381
:1009F0003A834B835C8362D129813A814B815C814C
:100A00005AD003C060E070E0CB010F900F900F90C0
:100A10000F90DF91CF910895CF92DF92EF92FF92E6
:100A20006B017C0162177307840795075CF4CA01A8
:100A3000B9016C197D098E099F09CCDF6C0D7D1DF4
:100A40008E1D9F1DFF90EF90DF90CF90089528DFBF
:100A5000FEDB0CDCFECF002480FD060E660F11F0DD
:100A60008695D1F7802D0895AA1BBB1B51E107C0C5
:100A7000AA1FBB1FA617B70710F0A61BB70B881F2E
:100A8000991F5A95A9F780959095BC01CD010895BD
:100A900097FB072E16F4009406D077FD08D0E4DF0C
:100AA00007FC05D03EF4909581959F4F0895709571
:100AB00061957F4F0895052E97FB16F400940FD093
:100AC00057FD05D068D007FC02D046F408C0509509
:100AD0004095309521953F4F4F4F5F4F089590952A
:100AE0008095709561957F4F8F4F9F4F08956894C3
:100AF0000013E894A0E0B0E0EFE7F5E01DC0EFEFF1
:100B0000E7F959016A015E23550FEE08FE2C8701B3
:100B10009B01AC019E23990F660B762FCB015DD014
:100B2000CDB7DEB7EAE024C02F923F924F925F929A
:100B30006F927F928F929F92AF92BF92CF92DF92ED
:100B4000EF92FF920F931F93CF93DF93CDB7DEB752
:100B5000CA1BDB0B0FB6F894DEBF0FBECDBF0994E6
:100B60002A88398848885F846E847D848C849B843D
:100B7000AA84B984C884DF80EE80FD800C811B814B
:100B8000AA81B981CE0FD11D0FB6F894DEBF0FBE7A
:100B9000CDBFED010895A1E21A2EAA1BBB1BFD01DA
:100BA0000DC0AA1FBB1FEE1FFF1FA217B307E4074C
:100BB000F50720F0A21BB30BE40BF50B661F771FA4
:100BC000881F991F1A9469F7609570958095909584
:100BD0009B01AC01BD01CF010895DF93CF939F929C
:100BE000A0E49A2E0024D001E001F00116950795AB
:100BF000F794E794D794C794B794A79448F41068EF
:100C0000A20FB31FC41FD51FE61FF71F081E191E12
:100C1000220F331F441F551F661F771F881F991F00
:100C20009A9421F79D01AE01BF01C00111249F904C
:100C3000CF91DF910895A0E0B0E0E0E2F6E07ACF56
:100C4000EC01688179818A819B816115710581053B
:100C5000910521F464E279ED8BE597E02DE133EF26
:100C600041E050E028DF49015A0127EA31E440E041
:100C700050E03DDF69017A01C501B4012CEE34EF8B
:100C80004FEF5FEF34DF89019A01C00ED11EE21EE3
:100C9000F31EF7FE06C081E0C81AD108E10880E81B
:100CA000F80AC882D982EA82FB82C701B6019F771F
:100CB000CDB7DEB7ECE05ACFBEDF089580E690E016
:100CC000BADF0895609360007093610080936200C2
:100CD000909363000895F894FFCF01000000013C59
:100CE000FFFFFFFFFFFFFFFFFFFFFFFFFFFFFFFF14
:100CF000FFFFFFFFFFFFFFFFFFFFFFFFFFFFFFFF04
:100D0000FFFFFFFFFFFFFFFFFFFFFFFFFFFFFFFFF3
:100D1000FFFFFFFFFFFFFFFFFFFFFFFFFFFFFFFFE3
:1018B000FFFFFFFFFFFFFFFFFFFF8400B8C3D2C39E
:1018C00017C016C04CC014C00902120001010080EC
:1018D0003209040000000000000012011001FF00A6
:1018E0000008D01653070B0100000001040309048F
:1018F00011241FBECFE5D2E0CDBFDEBF00EB0F93BA
:1019000007E00F9310E0A0E6B0E0E4EDFFE102C0D5
:1019100005900D92A636B107D9F720E0A6E6B0E013
:1019200001C01D92A639B207E1F7E1C1A82FB92F76
:1019300080E090E041E050EA609530E009C02D91F0
:1019400082279795879510F084279527305EC8F3F6
:101950006F5FA8F30895EADF8D939D930895CF9369
:10196000CFB7CF93C0915F02C03B21F4C0915E021C
:10197000C73021F0CF91CFBFCF91A1CFCC27C39556
:10198000B39BE9F7B39B0BC0B39B09C0B39B07C0E4
:10199000B39B05C0B39B03C0B39B01C0D3C00F92E0
:1019A000DF93C0917900DD27C058DF4F012EB39B34
:1019B00003C0DF910F90E6CF2F930F931F934F93A8
:1019C0002FEF4F6F06B303FB20F95F933F9350E077
:1019D0003BE065C016B30126502953FDC89556B3A8
:1019E000012703FB25F92F7306B3B1F05027102709
:1019F00013FB26F906B22230F0F000C016B301271F
:101A000003FB27F90126502906B22430E8F54F7769
:101A1000206816B30000F6CF50274F7D206206B233
:101A2000102F000000C006B300265029102713FB1A
:101A300026F906B2E2CF4F7B06B3206400C0DACFAE
:101A400001265029187106B269F14E7F2160012FDD
:101A500016B328C0002650294D7F06B22260102FF1
:101A600029C0012650294B7F06B22460012F2DC0CA
:101A700016B301265029477F2860000006B22EC009
:101A80004F7E06B3206130C0422706B3499300263B
:101A90005029102706B24FEF13FB20F9297F16B308
:101AA00079F2187159F10126502906B2012703FB7A
:101AB00021F9237F06B371F2002650293150D0F06E
:101AC00006B2102713FB22F9277E16B351F2012626
:101AD0005029012703FB06B223F92F7C49F20000AD
:101AE00006B3102713FB24F90026502906B22F79DC
:101AF00039F270CF10E21ABF002717C03B50319562
:101B0000C31BD04010E21ABF0881033CF9F00B342C
:101B1000E9F0209177001981110F1213EDCF0936EA
:101B200051F10D3211F0013E39F700937E003F91E3
:101B30005F914F911F910F912F91DF910F90CAB735
:101B4000C5FD1DCFCF91CFBFCF91189520917E00BD
:101B5000222369F310917C00112321F5343022F106
:101B600030937C0020937800109179003BE0311B8A
:101B70003093790019C000917C0001309CF40AE593
:101B80003091650034FD11C000936500CCE6D0E0D3
:101B900010C0052710E000C021C0052710E0C8953F
:101BA00008BB14C03AE501C032ED032EC0E0D0E01E
:101BB00032E017B31861C39A08B317BB58E120E8A5
:101BC0004FEF20FF052708BB279517951C3F28F7E7
:101BD00000004552B0F720FF0527279508BB179551
:101BE0001C3FB8F629913A9561F7077E10917D0068
:101BF000110F08BBC250D04011F01093770010E2D3
:101C00001ABF086017B3177E402F477E54E05A95DD
:101C1000F1F708BB17BB48BB8ACFF8942FEFB0E8A9
:101C2000A0E44AE0B1BF000081EE9CE0B399FECF92
:101C3000B39BFECF0197B399FDCF97FF03C0BA1BAB
:101C4000819501C0BA0FA69529F4281710F031B775
:101C5000282FA1E0415031F731BF0000789408955A
:101C6000F894F201329785E080935700E8957894D4
:101C70000895F201309729F49093680080936700EB
:101C800007C0E430F10539F490936A00809369004D
:101C90008FE59CEC1FC02CEB421628E1520639F46C
:101CA00080916700909168008E559C4F13C02EEB79
:101CB000421628E1520639F48091690090916A0039
:101CC0008D559C4F07C02AEB421628E1520611F4AD
:101CD00081B790E02FB7F89431E00C0130935700B2
:101CE000E8951124CF0102962C012FBF089514BE50
:101CF00088E181BD87E081BDBB9A88E893E1ECE98A
:101D0000F1E03197F1F701970097C9F7BB98AC9ACA
:101D10008BB780628BBF7894712C8CE991E001972E
:101D2000F1F7A895312C60917C001DEF160F17FD7F
:101D3000B3C080917900CCE0D0E0C81BD109C05875
:101D4000DF4F6150CE01F2DD8E3F9F4409F0A2C00B
:101D5000809178008D3209F086C0183009F09AC061
:101D600083EC80936C008AE58093650010926B0091
:101D70009881292F207689812223D1F0712C81111D
:101D800008C080E690E090937B0080937A0024E086
:101D900060C0813051F481E180935700E8954C8018
:101DA0005D8097FD51C02FEF50C0382E20E051C00C
:101DB0009A8110927500811106C01092760085E715
:101DC00090E022E03CC0853019F490937D0029C05A
:101DD000863009F58B81813019F48AED98E104C0D1
:101DE000823041F488EC98E190937B0080937A00F4
:101DF00022E10DC0833051F4911108C08CEE98E1BE
:101E000090937B0080937A0024E001C020E080E47E
:101E100080936B001EC0883079F0893031F4909344
:101E20007F0085E790E020E00AC021E08A3009F0D9
:101E300020E085E790E003C08FE790E021E09093F9
:101E40007B0080937A0005C02E8180E880936B0030
:101E500007C08F81811104C08E81821708F4282F5A
:101E60002093640017C080916B0087FF13C080EC43
:101E7000481688E1580640F0842D8F7359F495E098
:101E8000392E1092640006C089919991F2DE1250A9
:101E900071F7F2CF10927C008091650084FF42C000
:101EA000809164008F3F09F43DC0182F893008F0FD
:101EB00018E0811B8093640080916C0098E889276A
:101EC00080936C00112311F1E0917A00F0917B0076
:101ED00080916B0086FF0BC08DE690E0DC012491C1
:101EE0002D933196212F280F2A13F9CF0BC0EF0124
:101EF0008DE690E0DC0129912D93FE01212F280F22
:101F00002A13F9CFF0937B00E0937A00612F8DE6DE
:101F100090E021DD1C5F1C3019F08FEF809364008E
:101F20001093650084E196B3987131F48150D9F72C
:101F300010927D0010927700C1E08111C0E0809185
:101F400066008C1729F0C11101C067DEC0936600DE
:101F5000C30101963C018035934C11F484E0382E86
:101F6000232D3320E9F08AE390E20197F1F7223044
:101F7000A9F4F894E0ECF8E1E054F10983E08093EF
:101F80005700E8953097C1F7412C512CC8E08FEFEE
:101F90009FEF6FDEC150D9F763DE02C02530E1F359
:101FA00084E03812BACEEDEBF8E1E491EF3F09F4AA
:101FB000B4CEF894BB9A1BBE15BA10925F02EAEB3E
:101FC000F8E1E4918FEF8E0F8E3F10F4E1BF000037
:101FD00075CCFFCF18BA4008FF5AFFFFFFFFFFFF85
:101FE000FFFFFFFFFFFFFFFFFFFFFFFFFFFFFFFF01
:101FF000FFFFFFFFFFFFFFFFFFFFFFFFFFFFFFFFF1
:00000001FF
