:20000000BFCC30C02FC02EC09BC32CC02BC02AC029C028C027C026C025C024C023C001021C
:20002000040810200101010101010038003711241FBECFE5D2E0DEBFCDBF10E0A0E6B0E068
:20004000E4E1FDE002C005900D92A636B107D9F720E0A6E6B0E001C01D92A23BB207E1F7AA
:2000600013D556C6CDCF60E081E07DD460E080E07AD460E081E040D460E080E03DC48230F8
:2000800071F018F4813031F00895833071F0843089F0089561E081E02FD461E004C061E0BB
:2000A00081E02AD460E081E00AC061E080E024D461E004C061E080E01FD460E080E053C48D
:2000C000CF93DF93C6E6D0E080E0C23AD80759F025E030E040E050E061E070E080E090E0A6
:2000E000B8D46993F1CFDF91CF91089560E082E03AD460E084E037D460E082E0FDD360E03A
:2001000084E0FAD361E070E080E090E094D381E059D476D4D5DF61E082E0EED361E084E051
:20012000EBD37CC1CF93DF93C1E0D0E0C530D10554F499DF8C2FA3DF64E670E080E090E06D
:200140007AD32196F3CFBCD2EC01009769F36AE09FD480936500C093640085DF8C2F8FDFF2
:20016000AFD2892BE9F7DF91CF917DCFCF92DF92EF92FF920F931F93CF93DF93C0E0D0E0F2
:2001800098ECE92EF12C8091650090E0C817D9070CF054C006E610E06801F80181918F0112
:2001A0006EDFF601808176D16091640070E0C7018CD4882777FD8095982F3DD354DF6091B3
:2001C000640070E0C70181D4882777FD8095982F32D3C80186569040C817D907ECF686E6C8
:2001E000C82E80E0D82E6CD2892BE9F769D28C010097E1F344DF802F4DD162D2892BE9F7E6
:2002000032DFF60181916F0190E00817190749F0DF91CF911F910F91FF90EF90DF90CF9070
:20022000D5C1CF0186569040C817D907E4F664EF71E080E090E0FFD22196A5CFDF91CF91D3
:200240001F910F91FF90EF90DF90CF9042C160E080E052D360E081E04FD360E083E04CD325
:2002600061E082E049D361E084E046C35BDF68EE73E080E090E0DFD239DF68EE73E080E08C
:2002800090E0D9D273CF8F929F92AF92BF92CF92DF92EF92FF92CF93DF93EC016B01837019
:2002A0008F5FEDDE98D24B015C01E12CF12C2097D1F491D2681979098A099B096C157D052C
:2002C0008E059F05B0F3CFDE61E070E080E090E0DF91CF91FF90EF90DF90CF90BF90AF90FC
:2002E0009F908F90A8C261E082E03DD360E084E03AD3CE01C4D260E082E035D361E084E02E
:2003000032D3CE01BCD267D2681979098A099B096C157D058E059F0530F3D5CF8F929F92B5
:20032000AF92BF92CF92DF92EF92FF92CF93DF93EC016B0150D24B015C01E12CF12C20976E
:20034000C9F449D2681979098A099B096C157D058E059F05B0F361E070E080E090E0DF91DD
:20036000CF91FF90EF90DF90CF90BF90AF909F908F9061C261E082E0F6D260E084E0F3D26E
:20038000CE017DD260E082E0EED261E084E0EBD2CE0175D220D2681979098A099B096C15B8
:2003A0007D058E059F0530F3D6CF0F931F93CF93DF93EC018B0167DFB80176956795CE0146
:2003C000DF91CF911F910F915ECFCF93DF93EB01D695C795BE0157DFBE0180E090E0DF9155
:2003E000CF9129C2EF92FF920F931F93CF93DF93FC018B017A01C90163E070E052D3EB0106
:20040000CF0141DFBE01C8013EDFBE01C701DF91CF911F910F91FF90EF9035CF66E970E0EF
:200420008BE791E0D2DF66E970E08BE791E0CDDF66E970E080E090E026DF66E970E08BE775
:2004400091E0C3DF66E970E080E090E01CDF66E970E08DED91E0B9DF66E970E08BE791E07B
:20046000B4DF66E970E080E090E00DDF6CE271E08EE391E0AADF6CE271E080E090E003DF33
:200480006CE271E08DE792E0A0DF6CE271E080E090E0F9CE823071F018F4813031F0089594
:2004A000833069F0843081F0089566E970E08DED91E00EC066E970E089EA91E009C066E97B
:2004C00070E08BE791E004C066E970E085E691E025CF6CE271E080E794E077DF6CE271E047
:2004E00080E090E0D0DE6CE271E08BEB93E05DDF6CE271E080E794E068DF66E970E080E7F3
:2005000094E063DF6CE271E083E593E0BCDE6CE271E080E794E0B7DE6CE271E08DE792E07D
:2005200054DF6CE271E080E794E0ADDE6CE271E080E090E0A8DE6CE271E086EF92E035DFF4
:200540006CE271E080E794E040DF66E970E080E794E03BDF6CE271E08BEC92E036DF6CE283
:2005600071E086EF92E031DF6CE271E08BEB93E02CDF6CE271E080E794E027DF6CE271E081
:2005800086EF92E022DF6CE271E088E392E01DDF66E970E080E794E018DF6CE271E08BEF71
:2005A00094E013DF66E970E08BEF94E00EDF6CE271E08CEE95E009DF6CE271E084EF93E060
:2005C00004DF68E572E080E794E0EFCE28E532E040E050E060E070E080E090E003DF28E543
:2005E00032E046EF52E065E873E086EF92E0FADE28E532E043E253E06BEB73E083E293E02B
:20060000F1DE28E532E043E553E064EF73E083E593E0E8DE6CE271E085E893E0D6DE6CE2C9
:2006200071E086EA96E0D1DE6CE271E087E496E0CCDE68E572E08CEE95E025CE0F931F93D5
:20064000CF93DF9305E010E0C0E0D0E083E0BAD1C80FD91F65E070E080E090E0ECD0015072
:200660001109A1F7CE0165E070E01BD2693E83E07807F8F4CB01885591408B33910580F0C4
:200680008D5891098B33910570F08239910570F0695772406B33710560F484E090E00BC0FD
:2006A00081E090E008C082E090E005C083E090E002C080E090E0DF91CF911F910F910895E8
:2006C0000F931F93CF93DF93B9DFEC018091A30090E0C817D90749F07ED06093A400709369
:2006E000A5008093A6009093A700C093A30073D00091A4001091A5002091A6003091A7005F
:20070000601B710B820B930B6230710581059105D8F2C093A200CE01DF91CF911F910F91E5
:20072000089583B7887F83BF8AB58C7F81608ABD83B7877F83BF83B7887F836083BF0895A2
:2007400078941F920F920FB60F9211242F933F938F939F93AF93BF938091A9009091AA009F
:20076000A091AB00B091AC003091A80026E0230F2D3730F029E8230F0396A11DB11D03C060
:200780000296A11DB11D2093A8008093A9009093AA00A093AB00B093AC008091AD009091A5
:2007A000AE00A091AF00B091B0000196A11DB11D8093AD009093AE00A093AF00B093B00031
:2007C000BF91AF919F918F913F912F910F900FBE0F901F9018952FB7F8946091A900709135
:2007E000AA008091AB009091AC002FBF08953FB7F8948091AD009091AE00A091AF00B0910B
:20080000B0002FB508B602FE05C02F3F19F00196A11DB11D3FBF6627782F892F9A2F620F03
:20082000711D811D911D43E0660F771F881F991F4A95D1F70895CF92DF92EF92FF92CF93C7
:20084000DF936B017C01D3DFEB01C114D104E104F10471F0CCDF6C1B7D0B683E7340A8F30C
:2008600081E0C81AD108E108F108C851DC4FEDCFDF91CF91FF90EF90DF90CF900895039797
:2008800028F021F0880F991F0197F1F70895E1E0F0E081E28093570084910895CF93C1B7D9
:2008A000F6DFC81749F001B607FE03C081B7875002C081B7855081BFF89480E886BD81E016
:2008C00086BD789480B7806880BF80B7806480BF8CB580648CBD8FEF8DBD80B7807F8760BE
:2008E00080BF89B7846089BF1CDF86B1887F866086B9379ACF910895CF93DF9390E0FC01E0
:20090000E25EFF4F2491FC01EC5DFF4F8491882339F190E0FC01E45DFF4FA491B0E0FC0158
:20092000E65DFF4F8491611106C09FB7F8948C912095822313C0623069F4C82FD0E09FB7C1
:20094000F8948C91322F309583238C938881822B888305C09FB7F8948C91822B8C939FBF54
:20096000DF91CF910895A82FB0E0FD01E25EFF4F9491FD01EC5DFF4FE491EE2311F1811143
:2009800003C08AB58F7304C0813021F48AB58F7C8ABD05C0843019F48CB58F7C8CBDF0E04D
:2009A000E65DFF4FA491B0E02FB7611105C0F8948C919095892303C0F8948C91892B8C930B
:2009C0002FBF0895863008F086503091B10027B1932F9295990F990F907C2F72922B32FBEE
:2009E000332730F93295307F932B97B997B1907F982B97B9369A3699FECF84B195B1089502
:200A0000009721F0BC0180E090E079C10895CF93DF9300D000D0CDB7DEB79B01AC0161157E
:200A200071058105910559F069833A834B835C8362D129813A814B815C815AD003C060E017
:200A400070E0CB010F900F900F900F90DF91CF910895CF92DF92EF92FF926B017C0162174B
:200A60007307840795075CF4CA01B9016C197D098E099F09CCDF6C0D7D1D8E1D9F1DFF9002
:200A8000EF90DF90CF90089509DFE1DBEFDBFECF002480FD060E660F11F08695D1F7802D76
:200AA0000895AA1BBB1B51E107C0AA1FBB1FA617B70710F0A61BB70B881F991F5A95A9F776
:200AC00080959095BC01CD01089597FB072E16F4009406D077FD08D0E4DF07FC05D03EF460
:200AE000909581959F4F0895709561957F4F0895052E97FB16F400940FD057FD05D068D027
:200B000007FC02D046F408C050954095309521953F4F4F4F5F4F089590958095709561951D
:200B20007F4F8F4F9F4F089568940013E894A0E0B0E0ECE9F5E01DC0EFEFE7F959016A01D9
:200B40005E23550FEE08FE2C87019B01AC019E23990F660B762FCB015DD0CDB7DEB7EAE064
:200B600024C02F923F924F925F926F927F928F929F92AF92BF92CF92DF92EF92FF920F93B1
:200B80001F93CF93DF93CDB7DEB7CA1BDB0B0FB6F894DEBF0FBECDBF09942A8839884888C4
:200BA0005F846E847D848C849B84AA84B984C884DF80EE80FD800C811B81AA81B981CE0FC4
:200BC000D11D0FB6F894DEBF0FBECDBFED010895A1E21A2EAA1BBB1BFD010DC0AA1FBB1F81
:200BE000EE1FFF1FA217B307E407F50720F0A21BB30BE40BF50B661F771F881F991F1A94CE
:200C000069F760957095809590959B01AC01BD01CF010895DF93CF939F92A0E49A2E002457
:200C2000D001E001F00116950795F794E794D794C794B794A79448F41068A20FB31FC41F5E
:200C4000D51FE61FF71F081E191E220F331F441F551F661F771F881F991F9A9421F79D0170
:200C6000AE01BF01C00111249F90CF91DF910895A0E0B0E0EDE3F6E07ACFEC0168817981A4
:200C80008A819B81611571058105910521F464E279ED8BE597E02DE133EF41E050E028DFF5
:200CA00049015A0127EA31E440E050E03DDF69017A01C501B4012CEE34EF4FEF5FEF34DFC1
:200CC00089019A01C00ED11EE21EF31EF7FE06C081E0C81AD108E10880E8F80AC882D98252
:200CE000EA82FB82C701B6019F77CDB7DEB7ECE05ACFBEDF089580E690E0BADF089560932F
:200D000060007093610080936200909363000895F894FFCF01000000013CFFFFFFFFFFFFE5
:200D2000FFFFFFFFFFFFFFFFFFFFFFFFFFFFFFFFFFFFFFFFFFFFFFFFFFFFFFFFFFFFFFFFD3
:200D4000FFFFFFFFFFFFFFFFFFFFFFFFFFFFFFFFFFFFFFFFFFFFFFFFFFFFFFFFFFFFFFFFB3
:200D6000FFFFFFFFFFFFFFFFFFFFFFFFFFFFFFFFFFFFFFFFFFFFFFFFFFFFFFFFFFFFFFFF93
:200D8000FFFFFFFFFFFFFFFFFFFFFFFFFFFFFFFFFFFFFFFFFFFFFFFFFFFFFFFFFFFFFFFF73
:20196000FFFFFFFFFFFFFFFFFFFFFFFFFFFFFFFFFFFFFFFFFFFFFFFFFFFF8A0058C3FFFFDE
:2019800017C0197A4005930B09021200010100803209040000000000000012011001FF00F9
:2019A0000008D01653070302000000010403090411241FBECFE5D2E0CDBFDEBF20E0A0E69E
:2019C000B0E001C01D92AC38B207E1F7BFC1A82FB92F80E090E041E050EA609530E009C05A
:2019E0002D9182279795879510F084279527305EC8F36F5FA8F30895EADF8D939D930895CC
:201A0000CF93CFB7CF93C395B39BE9F7B39B0BC0B39B09C0B39B07C0B39B05C0B39B03C08D
:201A2000B39B01C0D9C00F92DF93C0916E00DD27CA58DF4F012EB39B03C0DF910F90E6CFD4
:201A40002F930F931F934F932FEF4F6F06B303FB20F95F933F9350E03BE065C016B30126BE
:201A6000502953FDC89556B3012703FB25F92F7306B3B1F05027102713FB26F906B2223012
:201A8000F0F000C016B3012703FB27F90126502906B22430E8F54F77206816B30000F6CF32
:201AA00050274F7D206206B2102F000000C006B300265029102713FB26F906B2E2CF4F7BBB
:201AC00006B3206400C0DACF01265029187106B269F14E7F2160012F16B328C00026502957
:201AE0004D7F06B22260102F29C0012650294B7F06B22460012F2DC016B301265029477FC6
:201B00002860000006B22EC04F7E06B3206130C0422706B3499300265029102706B24FEFD6
:201B200013FB20F9297F16B379F2187159F10126502906B2012703FB21F9237F06B371F279
:201B4000002650293150D0F006B2102713FB22F9277E16B351F201265029012703FB06B25E
:201B600023F92F7C49F2000006B3102713FB24F90026502906B22F7939F270CF10E21ABF14
:201B800000271DC03B503195C31BD04010E21ABF0881033C29F10B3419F120916C00198155
:201BA000110F1213EDCF093651F10D3211F0013E39F7CAE01AB715FD02C0CA95D9F70093E3
:201BC00074003F915F914F911F910F912F91DF910F90CAB7C5FD17CFCF91CFBFCF910895BE
:201BE00020917400222369F3109172001123F1F43430F2F03093720020936D0019C00091EE
:201C0000720001309CF40AE530916F0034FD11C000936F00C1E6D0E010C0052710E000C06B
:201C200021C0052710E0C89508BB14C03AE501C032ED032EC0E0D0E032E017B31861C39A81
:201C400008B317BB58E120E84FEF20FF052708BB279517951C3F28F700004552B0F720FF2B
:201C60000527279508BB17951C3FB8F629913A9561F7077E10917300110F08BBC250D04085
:201C800011F010936C0010E21ABF086017B3177E402F477E54E05A95F1F708BB17BB48BBCB
:201CA00090CF2FEFB0E8A0E04AE0B1BF000081EE9CE0B399FECFB39BFECF0197B399FDCF26
:201CC00097FF03C0BA1B819501C0BA0FA69539F4A0E428F4281710F031B7282FA1E041509E
:201CE00021F731BF00000895F201309741F02AE7421629E1520629F481B790E002C08FEB88
:201D00009CEC21E00C0120935700E8951124CF0102962C01089514BE88E181BD87E081BD21
:201D2000BB9A2FE28BE19FE0215080409040E1F700C00000BB988AE580936F008FEF8093E4
:201D40006000AC9A8BB780628BBF0895EAE7F9E1E491EF3F11F0E1BF0000DDDF712C312C2D
:201D6000412C512CCCE7D5E114E686B3887109F014E6115029F41092730010926C0091DFE0
:201D80000AB605FE05C03CDE80E28ABF712C04C0219759F7C0E0D0E0A89522E032120CC0EE
:201DA000E0E8F9E1E054F10983E080935700E8953097C1F7412C512C832D803459F4F201FC
:201DC0003297E03889E1F80750F485E080935700E89505C0843019F4CD2B11F4EAC0312C9F
:201DE00080917200835087FD99C090916D009D3209F092C0883009F08FC083EC8093610025
:201E00008AE580936F0080917700807690917800882379F1911108C082E899E190937100C3
:201E20008093700086E06DC0913069F441145104F1F080917B00807C482E50907C0081E127
:201E400087BFE89514C0933081F48091790090917A004ADF80917B0090917C0045DF842D67
:201E60008F7329F490E4392E4CC09F73392E80E048C08091790010926A00911106C01092DB
:201E80006B002AE630E082E038C0953019F48093730025C09630E9F490917A00913019F414
:201EA0008AE999E104C0923041F488E899E1909371008093700082E124C09330C1F6811126
:201EC000D6CF8CEA99E1909371008093700084E018C0983079F0993031F4809375002AE663
:201EE00030E080E00AC081E09A3009F080E02AE630E003C025E730E081E0309371002093DD
:201F0000700090917E00911105C090917D00981708F4892F809360001092720080916F0043
:201F200084FF31C0809160008F3F69F1C82F893008F0C8E08C1B809360009091610088E838
:201F4000892780936100CC2391F080917000A2E6B0E0E82FF091710094919D9331969C2F64
:201F6000980F9E13F9CFF0937100E09370006C2F82E690E041DDCC5FCC3019F08FEF809318
:201F80006000C0936F00C30101963C01803B944029F4EDE7F9E1E491EF3F59F40AB605FE7A
:1C1FA000E1CE8DE1B39B8DE18150E1F780E28ABFD9CEB1DE1BBE15BAE1CCFFCF9F
:00000001FF
